:1000000013C0FECFFDCFFCCFFBCFFACFF9CFF8CF97
:10001000F7CFF6CFF5CFF4CFF3CFF2CFF1CFF0CFCC
:10002000EFCFEECFEDCF0000F894EE27ECBBF1E080
:10003000FBBFEBBFE5BFF8E1F1BDE1BD8DE0A2E0A4
:10004000BB27ED938A95E9F780E094E0A0E6ED9375
:100050000197E9F7E6E2F0E085919591009761F06C
:10006000A591B59105901590BF01F00105900D92F5
:100070000197E1F7FB01F0CFEFE5EDBFE4E0EEBF64
:10008000C0E6D1E07CC0E8E0EAB9E6E8E0BDE0E047
:10009000E0BDE7E6E9B908955D9BFECFE881ECB9E4
:1000A00021960895A881B981EC91EF704E2E99D0D8
:1000B0009BD05E2E96D01196EC91EF706E2E91D063
:1000C000119692D07E2E8DD01296EC91EF708E2EDE
:1000D00088D0129689D09E2E229608958AD08CD0F0
:1000E000F1F38DD089D0F1F38FD086D0F1F391D098
:1000F00080D082D0F1F3E1EDE3B9E4E8E6BF7CD053
:10010000F1F3E4ECE6BF78D0F1F3E3B1E093600102
:10011000E4ECE6BF71D0F1F3A1E6B1E0E3B1EC931A
:10012000E4E8E6BF69D0F1F3A2E6B1E0E3B1EC9315
:1001300070D008955ED060D0F1F361D05DD0F1F35E
:1001400063D05AD0F1F360D057D0F1F35DD054D0E2
:10015000F1F35AD051D0F1F35CD008954AD04CD08D
:10016000F1F34DD049D0F1F3E7E0E3B9E4E8E6BFBD
:1001700043D0F1F349D040D0F1F34BD00895EFEFE5
:10018000E4BBE1BBE8E4E0B9E0E0E1B97CDFE6DF55
:10019000D1DFE2E3F0E0FA93EA933ED09FDFE0E6BE
:1001A000F1E0FA93EA937EDF9A9276DF8A9274DF27
:1001B0007A9272DF6A9270DF5A926EDF4A926CDF37
:1001C000E8EEF3E0FA93EA9327D0E8CFFFCF5F9B06
:1001D000FECFECB108955D9BFECFE881ECB921968E
:1001E0000895A881B9810895EC91E07FE295EF70C0
:1001F0000895E4EAE6BF0895E6B7E0780895E0EDF3
:10020000E3B9E4E8E6BF0895E0E0E3B9E4E8E6BF77
:100210000895E4E9E6BF0895E991F991309639F03F
:1002200080EA9FE00197F1F7A8953197C9F7089503
:00000001FF
