S01700004453313330372049324320524541442E7372656391
S11300005AC369C368C367C366C365C364C363C3B0
S113001062C361C360C35FC35EC35DC35CC35BC3D0
S11300205AC359C358C30000F8F8F8F20606060E7E
S11300300E0E0E0C0C0C0C0C0C040000040C0C0822
S113004008080808080818180808E8E0F0F0000094
S113005000000F0F070310101818181818181010A4
S113006010100000000010303030303030303030AC
S1130070307020400F1F1F1F00000000000002020C
S1130080060606060E0E0E0E0E0C0C0C0C040000DA
S1130090040C0C0C08080808080808181818180894
S11300A00800000000000000000000000000000044
S11300B0000000000000000000000000000000003C
S11300C0000000000000000000000000000000002C
S11300D0F8F8F8F20206040C0C0E0E0C0C0C0C0CC6
S11300E004E4F0F000000000000000000000000044
S11300F00000C0E0F0F00000000007070F07000058
S113010000000000000000000000000F0F0F00209E
S11301103030303030303030302020400F1F1F1F3F
S113012000000000F8F0F0E4040C0C0C0C0C0C08BB
S11301300808080808E0E0E000080818181818186B
S11301401818383810108080C0C0000000000F0F4D
S11301500F0F000000000000000000000000000F6E
S11301601F0F00000000000000000000000000005D
S11301701F3F3F3F00000000000000080808080877
S1130180080808081818180800C0F0C00008183833
S1130190181818181010101010301010100000004B
S11301A000000000000010103030303030303030AB
S11301B03020600F0F1F000000000000000000004E
S11301C0000000000000000000000000F8F8F0F05B
S11301D000000000000000000000000000E0E0C09B
S11301E0080818181818181818183838301080C04B
S11301F0E0E0000000000F0F0F0700101010103097
S113020030303030303020070F0F00000000000085
S113021000000000000000001F3F3F3F00000000FE
S1130220F8F8F8F0000000000000000000000000F2
S113023000F0F0E000080808080808080808181882
S11302400808C8E0F0F0000000000F0F07031010CA
S11302501818181818181010101000070F0F002085
S11302603030303030303030303020000F0F1F1F2E
S113027000000000E0C0C09010303030303030302A
S1130280303030303020000020606060606060609A
S113029060606040404040400000000000007F7FFC
S11302A03F1F0000000000000000000000000000EC
S11302B0000000000000000000000000000000003A
S11302C00000000000000000F8F8F2F20606060E36
S11302D00E0E0E0C0C0C0C0404F0F0E0040C0C08D4
S11302E008080808080818181808C8E0F0F0000002
S11302F000000F0F070310181818181818181010FA
S11303001000000F0F070030303030303030303004
S1130310307020600F0F1F1F00000000F8F0F0E4A1
S1130320040C0C0C0C0C0C080808080800E0F0E0A5
S1130330000818181818181818183838101080C021
S1130340E0E0000000000F0F0F0F0000101010304D
S113035030303030303020070F0F00000000000034
S113036000000000000000001F3F3F3F00000000AD
S1130370C0C0E07030181808080C0C0C0C060606F7
S11303800606060606060606060C0C0C0C080818DB
S1130390183070E0E0C0000000000303070E0C18E2
S11303A018101030303030602020202020202020F1
S11303B020206030303030101018180C0E0707035E
S11303C00000000080808080808080808080808029
S11303D08080808080808080808080808080808019
S11303E08080808080808080808000000000000009
S11303F00101010F0F0F00010101010101010101C0
S113040001010101010101010101010101010101D8
S11304100101010100000000C0E0F0301808080CE0
S11304200C0C0C0C0C080818383070E0C08000006C
S11304300000000000000000000000FEFEFE0000BE
S1130440000003070F0C181010303030303000005B
S1130450000000000000010107060C0C1818103001
S113046030202060203F3F7F00000000C0E0F030DB
S11304701808080C0C0C0C0C08081830F0F0F038B4
S1130480080C0C040606060606060C0C181838F0B0
S1130490C0C00000000003070F0C181010303030EB
S11304A030000000000003030300000000000060AF
S11304B020202060303018181C0F030300000000B7
S11304C01030303070709090909010101010101008
S11304D010101010101010101010FEFEFE1010104E
S11304E01010101010300000000000000000000088
S11304F0000001010101020200040C04081810109C
S1130500102060607F7F7F0000000000000000007A
S113051000000000F8F8F8000000000000000000EF
S113052000C0F03018180C0C0C040606060606066B
S1130530060C0C0C081830F0C0C0000000001F1F8F
S11305401F18181010101010101010131F3C3838FA
S113055030300000000000000000006020703030E7
S11305601C0F070700000000E0F0F838080C0C0C22
S11305700C0000000000C0F03818180C0C0C060623
S113058006060606060E0C0C181830F0C0C0000053
S113059000000103070E0C0818181010303030202A
S11305A02367243838303030202020202020203089
S11305B0301018180C0F030300000000FEFEFE0CA0
S11305C00808103010306060404040C0C080808017
S11305D08000000000000000000000000000000097
S11305E00000000000007F3F7F00000000000000CA
S11305F000000000000000010001010303030202E7
S11306000202060606060C040404040C00000000A2
S1130610C0C0F0301808080C0C0C0C0C080818307A
S1130620E0E0F038180C0C040606060606060C0C6E
S1130630081830F0C0C00000000003030F0C1818A5
S11306401030303030301010180C0F070F1C1030E1
S11306502060606060606060206030101C0F0B03DD
S11306600000000040C0F0301818080C0C04040608
S1130670060606060E0E0E1E3E36E6C604040C0CD6
S11306800C0C0818183870E0E0C0000000000203E9
S11306900F0C18183030302020202020202020304B
S11306A030381C1C0F0300000000003030301010E4
S11306B01C0F0F07000011241FBECFE5D4E0DEBFDE
S11306C0CDBF20E0A0E6B0E001C01D92A237B20782
S11306D0E1F7CFD127C294CCFC01808191818F7046
S11306E09927909365008093640020813181207F55
S11306F03327329522952F7023273F702327309379
S113070069002093680022813381C9018F70992781
S11307109093630080936200207F33273295229563
S11307202F7023273F7023273093670020936600A0
S1130730848195819C012F7033273093610020932D
S11307406000807F9927929582958F7089279F708A
S113075089279093710080937000089594EA96BF5E
S113076006B607FEFDCF98E793B994E896BF06B6A0
S113077007FEFDCF13B894E896BF06B607FEFDCF7B
S113078083B984E886BF06B607FEFDCF84E986BF39
S113079008958EEAE3DF80E2E1DF80E1DFDF80EBD2
S11307A0DDDF88ECDBDF80E0D9DF80E1D7DF80E4C8
S11307B0D5DF81E8D3DF8FEFD1DF81EACFDF86EAAF
S11307C0CDDF88EACBDF8FE1C9DF84EAC7DF83EDC1
S11307D0C5DF80E0C3DF85EDC1DF80EFBFDF89EDDA
S11307E0BDDF82E2BBDF8AEDB9DF82E0B7DF8BEDEC
S11307F0B5DF80E2B3DF8DE8B1DF84E1AFDF8FEAFC
S1130800ADDF089594EA96BF06B607FEFDCF98E7DC
S113081093B994E896BF06B607FEFDCF90E493B96A
S113082094E896BF06B607FEFDCF83B984E886BF79
S113083006B607FEFDCF84E986BF0895CF92DF9206
S1130840EF92FF920F931F93CF93DF93FC019923B1
S11308500CF43F96F595E795F595E795F595E795AD
S1130860F595E7958F709078992324F40197806F1C
S11308709F6F0196E82E232B59F50F2EF0EBDF2EF8
S1130880F02DD60E84E5849FE001859FD00D1124C0
S1130890CA5DDF4F0F2EF2EBCF2EF02DC60E6894FB
S11308A0FF24F4F8FE0E8D2D59DF8E2D57DF8F2D8A
S11308B055DF8E01065D1F4FFE018491A3DF219653
S11308C00C171D07C9F7D394E801CD10ECCF2AC04B
S11308D00F2EF0EBDF2EF02DD60E84E5849FE00181
S11308E0859FD00D1124C259DC4F0F2EF2EBCF2E71
S11308F0F02DC60E6894FF24F4F8FE0E8D2D2EDF25
S11309008E2D2CDF8F2D2ADF8E01065D1F4FFE01F9
S1130910849178DF2196C017D107C9F7D394E801F1
S1130920DC10ECCFDF91CF911F910F91FF90EF90EE
S1130930DF90CF9008951F93CF93DF9310EB812F17
S11309400DDF80E00BDF80E109DFC0E8D0E080E06C
S113095059DF2197E1F71F5F143B89F7DF91CF91AE
S11309601F91089584EA86BF06B607FEFDCF80ED89
S113097083B984E886BF06B607FEFDCF13B884E8C2
S113098086BF06B607FEFDCF84E986BF84EA86BF2C
S113099006B607FEFDCF81ED83B984E886BF06B6AF
S11309A007FEFDCF84EC86BF06B607FEFDCF83B1FC
S11309B090E090936B0080936A0084EC86BF06B647
S11309C007FEFDCF83B190E090936D0080936C009F
S11309D084E886BF06B607FEFDCF83B190E090930E
S11309E06F0080936E0084E986BF089584EA86BF11
S11309F006B607FEFDCF80ED83B984E886BF06B650
S1130A0007FEFDCF13B884E886BF06B607FEFDCF08
S1130A1013B884E886BF06B607FEFDCF13B884E892
S1130A2086BF06B607FEFDCF13B884E886BF06B6B8
S1130A3007FEFDCF84E986BF089584EA86BF06B623
S1130A4007FEFDCF80ED83B984E886BF06B607FEB6
S1130A50FDCF87E083B984E886BF06B607FEFDCFE5
S1130A6013B884E886BF06B607FEFDCF84E986BFC7
S1130A7008958FEF84BB88E480B911B88ADE5BDF08
S1130A80DCDFB4DF2FEF80E792E02150804090401C
S1130A90E1F700C0000066DF8AE690E01DDE4091C9
S1130AA060005091610020E030E060E070E080E0A0
S1130AB090E0C4DE409170005091710020E030E07D
S1130AC062E070E080E090E0B9DE40916200509115
S1130AD0630020E030E060E070E08BE290E0AEDEA6
S1130AE0409166005091670020E030E062E070E0E1
S1130AF08BE290E0A3DE409164005091650020E019
S1130B0030E060E070E085E590E098DE40916800B8
S1130B105091690020E030E062E070E085E590E00B
S10B0B208DDEB9CFF894FFCF7C
S9030000FC
